{
  "contractName": "DirectBenefitTransfer",
  "abi": [
    {
      "inputs": [],
      "stateMutability": "nonpayable",
      "type": "constructor"
    },
    {
      "anonymous": false,
      "inputs": [
        {
          "indexed": false,
          "internalType": "address",
          "name": "_farmer",
          "type": "address"
        },
        {
          "indexed": false,
          "internalType": "uint256",
          "name": "id",
          "type": "uint256"
        },
        {
          "indexed": false,
          "internalType": "string",
          "name": "_name",
          "type": "string"
        },
        {
          "indexed": false,
          "internalType": "uint256",
          "name": "_landArea",
          "type": "uint256"
        },
        {
          "indexed": false,
          "internalType": "string",
          "name": "_aadharNumber",
          "type": "string"
        },
        {
          "indexed": false,
          "internalType": "string",
          "name": "_schemeName",
          "type": "string"
        },
        {
          "indexed": false,
          "internalType": "string",
          "name": "_bankAccount",
          "type": "string"
        }
      ],
      "name": "FarmerRegistered",
      "type": "event"
    },
    {
      "anonymous": false,
      "inputs": [
        {
          "indexed": false,
          "internalType": "address",
          "name": "_farmer",
          "type": "address"
        },
        {
          "indexed": false,
          "internalType": "uint256",
          "name": "_id",
          "type": "uint256"
        },
        {
          "indexed": false,
          "internalType": "string",
          "name": "_name",
          "type": "string"
        },
        {
          "indexed": false,
          "internalType": "uint256",
          "name": "_landArea",
          "type": "uint256"
        },
        {
          "indexed": false,
          "internalType": "string",
          "name": "_aadharNumber",
          "type": "string"
        },
        {
          "indexed": false,
          "internalType": "string",
          "name": "_bankAccount",
          "type": "string"
        },
        {
          "indexed": false,
          "internalType": "uint256",
          "name": "_subsidyAmount",
          "type": "uint256"
        },
        {
          "indexed": false,
          "internalType": "string",
          "name": "_schemeName",
          "type": "string"
        },
        {
          "indexed": false,
          "internalType": "bool",
          "name": "_isRegistered",
          "type": "bool"
        }
      ],
      "name": "GetDetails",
      "type": "event"
    },
    {
      "anonymous": false,
      "inputs": [
        {
          "indexed": false,
          "internalType": "address",
          "name": "_farmer",
          "type": "address"
        },
        {
          "indexed": false,
          "internalType": "uint256",
          "name": "_subsidyAmount",
          "type": "uint256"
        },
        {
          "indexed": false,
          "internalType": "string",
          "name": "_schemeName",
          "type": "string"
        },
        {
          "indexed": false,
          "internalType": "bool",
          "name": "_isSchemeApproved",
          "type": "bool"
        }
      ],
      "name": "SchemeApproved",
      "type": "event"
    },
    {
      "inputs": [],
      "name": "farmerCount",
      "outputs": [
        {
          "internalType": "uint256",
          "name": "",
          "type": "uint256"
        }
      ],
      "stateMutability": "view",
      "type": "function",
      "constant": true
    },
    {
      "inputs": [
        {
          "internalType": "address",
          "name": "",
          "type": "address"
        }
      ],
      "name": "farmers",
      "outputs": [
        {
          "internalType": "uint256",
          "name": "id",
          "type": "uint256"
        },
        {
          "internalType": "string",
          "name": "name",
          "type": "string"
        },
        {
          "internalType": "uint256",
          "name": "landArea",
          "type": "uint256"
        },
        {
          "internalType": "string",
          "name": "aadharNumber",
          "type": "string"
        },
        {
          "internalType": "string",
          "name": "bankAccount",
          "type": "string"
        },
        {
          "internalType": "uint256",
          "name": "subsidyAmount",
          "type": "uint256"
        },
        {
          "internalType": "string",
          "name": "schemeName",
          "type": "string"
        },
        {
          "internalType": "bool",
          "name": "isRegistered",
          "type": "bool"
        }
      ],
      "stateMutability": "view",
      "type": "function",
      "constant": true
    },
    {
      "inputs": [],
      "name": "government",
      "outputs": [
        {
          "internalType": "address",
          "name": "",
          "type": "address"
        }
      ],
      "stateMutability": "view",
      "type": "function",
      "constant": true
    },
    {
      "inputs": [],
      "name": "totalSubsidyAmount",
      "outputs": [
        {
          "internalType": "uint256",
          "name": "",
          "type": "uint256"
        }
      ],
      "stateMutability": "view",
      "type": "function",
      "constant": true
    },
    {
      "inputs": [
        {
          "internalType": "address",
          "name": "_farmer",
          "type": "address"
        },
        {
          "internalType": "uint256",
          "name": "_subsidyAmount",
          "type": "uint256"
        },
        {
          "internalType": "string",
          "name": "_schemeName",
          "type": "string"
        },
        {
          "internalType": "bool",
          "name": "_isSchemeApproved",
          "type": "bool"
        }
      ],
      "name": "updateSubsidyAmount",
      "outputs": [],
      "stateMutability": "nonpayable",
      "type": "function"
    },
    {
      "inputs": [
        {
          "internalType": "string",
          "name": "_name",
          "type": "string"
        },
        {
          "internalType": "uint256",
          "name": "_landArea",
          "type": "uint256"
        },
        {
          "internalType": "string",
          "name": "_aadharNumber",
          "type": "string"
        },
        {
          "internalType": "string",
          "name": "_bankAccount",
          "type": "string"
        },
        {
          "internalType": "string",
          "name": "_schemeName",
          "type": "string"
        }
      ],
      "name": "registerFarmer",
      "outputs": [],
      "stateMutability": "nonpayable",
      "type": "function"
    },
    {
      "inputs": [
        {
          "internalType": "address",
          "name": "_farmer",
          "type": "address"
        }
      ],
      "name": "getFarmerDetails",
      "outputs": [
        {
          "internalType": "uint256",
          "name": "",
          "type": "uint256"
        },
        {
          "internalType": "string",
          "name": "",
          "type": "string"
        },
        {
          "internalType": "uint256",
          "name": "",
          "type": "uint256"
        },
        {
          "internalType": "string",
          "name": "",
          "type": "string"
        },
        {
          "internalType": "string",
          "name": "",
          "type": "string"
        },
        {
          "internalType": "uint256",
          "name": "",
          "type": "uint256"
        },
        {
          "internalType": "string",
          "name": "",
          "type": "string"
        },
        {
          "internalType": "bool",
          "name": "",
          "type": "bool"
        }
      ],
      "stateMutability": "nonpayable",
      "type": "function"
    }
  ],
  "bytecode": "0x608060405234801561001057600080fd5b5033600260006101000a81548173ffffffffffffffffffffffffffffffffffffffff021916908373ffffffffffffffffffffffffffffffffffffffff16021790555060006001819055506119e1806100696000396000f3fe608060405234801561001057600080fd5b506004361061007d5760003560e01c80638562bbb11161005b5780638562bbb1146100f3578063bd45b3971461010f578063d335ccfa1461012d578063e93414a9146101645761007d565b8063148e7a49146100825780632672f5261461009e578063401b2168146100bc575b600080fd5b61009c60048036038101906100979190610f18565b610182565b005b6100a661042a565b6040516100b39190610faa565b60405180910390f35b6100d660048036038101906100d19190610fc5565b610450565b6040516100ea98979695949392919061108f565b60405180910390f35b61010d60048036038101906101089190611129565b6106c5565b005b6101176108cf565b6040516101249190611214565b60405180910390f35b61014760048036038101906101429190610fc5565b6108d5565b60405161015b98979695949392919061108f565b60405180910390f35b61016c610cec565b6040516101799190611214565b60405180910390f35b600260009054906101000a900473ffffffffffffffffffffffffffffffffffffffff1673ffffffffffffffffffffffffffffffffffffffff163373ffffffffffffffffffffffffffffffffffffffff1614610212576040517f08c379a0000000000000000000000000000000000000000000000000000000008152600401610209906112a1565b60405180910390fd5b6000808573ffffffffffffffffffffffffffffffffffffffff1673ffffffffffffffffffffffffffffffffffffffff16815260200190815260200160002060070160009054906101000a900460ff166102a0576040517f08c379a00000000000000000000000000000000000000000000000000000000081526004016102979061130d565b60405180910390fd5b826000808673ffffffffffffffffffffffffffffffffffffffff1673ffffffffffffffffffffffffffffffffffffffff1681526020019081526020016000206005018190555080156103b557816040516020016102fd91906113b5565b6040516020818303038152906040526000808673ffffffffffffffffffffffffffffffffffffffff1673ffffffffffffffffffffffffffffffffffffffff168152602001908152602001600020600601908161035991906115f6565b50826003600082825461036c91906116f7565b925050819055507fbd0288e97cef3c2fe389686029c09cfe2f06abbb8464c42964584f01ef7b2feb338484846040516103a8949392919061172b565b60405180910390a1610424565b816040516020016103c6919061179d565b6040516020818303038152906040526000808673ffffffffffffffffffffffffffffffffffffffff1673ffffffffffffffffffffffffffffffffffffffff168152602001908152602001600020600601908161042291906115f6565b505b50505050565b600260009054906101000a900473ffffffffffffffffffffffffffffffffffffffff1681565b600060205280600052604060002060009150905080600001549080600101805461047990611419565b80601f01602080910402602001604051908101604052809291908181526020018280546104a590611419565b80156104f25780601f106104c7576101008083540402835291602001916104f2565b820191906000526020600020905b8154815290600101906020018083116104d557829003601f168201915b50505050509080600201549080600301805461050d90611419565b80601f016020809104026020016040519081016040528092919081815260200182805461053990611419565b80156105865780601f1061055b57610100808354040283529160200191610586565b820191906000526020600020905b81548152906001019060200180831161056957829003601f168201915b50505050509080600401805461059b90611419565b80601f01602080910402602001604051908101604052809291908181526020018280546105c790611419565b80156106145780601f106105e957610100808354040283529160200191610614565b820191906000526020600020905b8154815290600101906020018083116105f757829003601f168201915b50505050509080600501549080600601805461062f90611419565b80601f016020809104026020016040519081016040528092919081815260200182805461065b90611419565b80156106a85780601f1061067d576101008083540402835291602001916106a8565b820191906000526020600020905b81548152906001019060200180831161068b57829003601f168201915b5050505050908060070160009054906101000a900460ff16905088565b6000803373ffffffffffffffffffffffffffffffffffffffff1673ffffffffffffffffffffffffffffffffffffffff16815260200190815260200160002060070160009054906101000a900460ff1615610754576040517f08c379a000000000000000000000000000000000000000000000000000000000815260040161074b9061180f565b60405180910390fd5b600160008154809291906107679061182f565b9190505550604051806101000160405280600154815260200186815260200185815260200184815260200183815260200160008152602001828152602001600115158152506000803373ffffffffffffffffffffffffffffffffffffffff1673ffffffffffffffffffffffffffffffffffffffff16815260200190815260200160002060008201518160000155602082015181600101908161080991906115f6565b5060408201518160020155606082015181600301908161082991906115f6565b50608082015181600401908161083f91906115f6565b5060a0820151816005015560c082015181600601908161085f91906115f6565b5060e08201518160070160006101000a81548160ff0219169083151502179055509050507fce84684fc912396e9a97d4a9b7040a283e3f961edcd2d07693e8036e1a26471f3360015487878786886040516108c09796959493929190611877565b60405180910390a15050505050565b60015481565b6000606060006060806000606060008060008a73ffffffffffffffffffffffffffffffffffffffff1673ffffffffffffffffffffffffffffffffffffffff16815260200190815260200160002060070160009054906101000a900460ff16610972576040517f08c379a00000000000000000000000000000000000000000000000000000000081526004016109699061130d565b60405180910390fd5b60008060008b73ffffffffffffffffffffffffffffffffffffffff1673ffffffffffffffffffffffffffffffffffffffff16815260200190815260200160002060405180610100016040529081600082015481526020016001820180546109d890611419565b80601f0160208091040260200160405190810160405280929190818152602001828054610a0490611419565b8015610a515780601f10610a2657610100808354040283529160200191610a51565b820191906000526020600020905b815481529060010190602001808311610a3457829003601f168201915b5050505050815260200160028201548152602001600382018054610a7490611419565b80601f0160208091040260200160405190810160405280929190818152602001828054610aa090611419565b8015610aed5780601f10610ac257610100808354040283529160200191610aed565b820191906000526020600020905b815481529060010190602001808311610ad057829003601f168201915b50505050508152602001600482018054610b0690611419565b80601f0160208091040260200160405190810160405280929190818152602001828054610b3290611419565b8015610b7f5780601f10610b5457610100808354040283529160200191610b7f565b820191906000526020600020905b815481529060010190602001808311610b6257829003601f168201915b5050505050815260200160058201548152602001600682018054610ba290611419565b80601f0160208091040260200160405190810160405280929190818152602001828054610bce90611419565b8015610c1b5780601f10610bf057610100808354040283529160200191610c1b565b820191906000526020600020905b815481529060010190602001808311610bfe57829003601f168201915b505050505081526020016007820160009054906101000a900460ff16151515158152505090507f20afcea1b8beb2038ab29d6fb6cafab30b868cce9f37daec67c64b0a80ca199933826000015183602001518460400151856060015186608001518760a001518860c001518960e00151604051610ca099989796959493929190611902565b60405180910390a1806000015181602001518260400151836060015184608001518560a001518660c001518760e001519850985098509850985098509850985050919395975091939597565b60035481565b6000604051905090565b600080fd5b600080fd5b600073ffffffffffffffffffffffffffffffffffffffff82169050919050565b6000610d3182610d06565b9050919050565b610d4181610d26565b8114610d4c57600080fd5b50565b600081359050610d5e81610d38565b92915050565b6000819050919050565b610d7781610d64565b8114610d8257600080fd5b50565b600081359050610d9481610d6e565b92915050565b600080fd5b600080fd5b6000601f19601f8301169050919050565b7f4e487b7100000000000000000000000000000000000000000000000000000000600052604160045260246000fd5b610ded82610da4565b810181811067ffffffffffffffff82111715610e0c57610e0b610db5565b5b80604052505050565b6000610e1f610cf2565b9050610e2b8282610de4565b919050565b600067ffffffffffffffff821115610e4b57610e4a610db5565b5b610e5482610da4565b9050602081019050919050565b82818337600083830152505050565b6000610e83610e7e84610e30565b610e15565b905082815260208101848484011115610e9f57610e9e610d9f565b5b610eaa848285610e61565b509392505050565b600082601f830112610ec757610ec6610d9a565b5b8135610ed7848260208601610e70565b91505092915050565b60008115159050919050565b610ef581610ee0565b8114610f0057600080fd5b50565b600081359050610f1281610eec565b92915050565b60008060008060808587031215610f3257610f31610cfc565b5b6000610f4087828801610d4f565b9450506020610f5187828801610d85565b935050604085013567ffffffffffffffff811115610f7257610f71610d01565b5b610f7e87828801610eb2565b9250506060610f8f87828801610f03565b91505092959194509250565b610fa481610d26565b82525050565b6000602082019050610fbf6000830184610f9b565b92915050565b600060208284031215610fdb57610fda610cfc565b5b6000610fe984828501610d4f565b91505092915050565b610ffb81610d64565b82525050565b600081519050919050565b600082825260208201905092915050565b60005b8381101561103b578082015181840152602081019050611020565b60008484015250505050565b600061105282611001565b61105c818561100c565b935061106c81856020860161101d565b61107581610da4565b840191505092915050565b61108981610ee0565b82525050565b6000610100820190506110a5600083018b610ff2565b81810360208301526110b7818a611047565b90506110c66040830189610ff2565b81810360608301526110d88188611047565b905081810360808301526110ec8187611047565b90506110fb60a0830186610ff2565b81810360c083015261110d8185611047565b905061111c60e0830184611080565b9998505050505050505050565b600080600080600060a0868803121561114557611144610cfc565b5b600086013567ffffffffffffffff81111561116357611162610d01565b5b61116f88828901610eb2565b955050602061118088828901610d85565b945050604086013567ffffffffffffffff8111156111a1576111a0610d01565b5b6111ad88828901610eb2565b935050606086013567ffffffffffffffff8111156111ce576111cd610d01565b5b6111da88828901610eb2565b925050608086013567ffffffffffffffff8111156111fb576111fa610d01565b5b61120788828901610eb2565b9150509295509295909350565b60006020820190506112296000830184610ff2565b92915050565b7f4f6e6c7920676f7665726e6d656e742063616e2061636365737320746869732060008201527f66756e6374696f6e000000000000000000000000000000000000000000000000602082015250565b600061128b60288361100c565b91506112968261122f565b604082019050919050565b600060208201905081810360008301526112ba8161127e565b9050919050565b7f4661726d6572206973206e6f7420726567697374657265640000000000000000600082015250565b60006112f760188361100c565b9150611302826112c1565b602082019050919050565b60006020820190508181036000830152611326816112ea565b9050919050565b7f504d2d4b4953414e200000000000000000000000000000000000000000000000815250565b600081905092915050565b600061136982611001565b6113738185611353565b935061138381856020860161101d565b80840191505092915050565b7f20697320617072726f7665640000000000000000000000000000000000000000815250565b60006113c08261132d565b6009820191506113d0828461135e565b91506113db8261138f565b600c8201915081905092915050565b7f4e487b7100000000000000000000000000000000000000000000000000000000600052602260045260246000fd5b6000600282049050600182168061143157607f821691505b602082108103611444576114436113ea565b5b50919050565b60008190508160005260206000209050919050565b60006020601f8301049050919050565b600082821b905092915050565b6000600883026114ac7fffffffffffffffffffffffffffffffffffffffffffffffffffffffffffffffff8261146f565b6114b6868361146f565b95508019841693508086168417925050509392505050565b6000819050919050565b60006114f36114ee6114e984610d64565b6114ce565b610d64565b9050919050565b6000819050919050565b61150d836114d8565b611521611519826114fa565b84845461147c565b825550505050565b600090565b611536611529565b611541818484611504565b505050565b5b818110156115655761155a60008261152e565b600181019050611547565b5050565b601f8211156115aa5761157b8161144a565b6115848461145f565b81016020851015611593578190505b6115a761159f8561145f565b830182611546565b50505b505050565b600082821c905092915050565b60006115cd600019846008026115af565b1980831691505092915050565b60006115e683836115bc565b9150826002028217905092915050565b6115ff82611001565b67ffffffffffffffff81111561161857611617610db5565b5b6116228254611419565b61162d828285611569565b600060209050601f831160018114611660576000841561164e578287015190505b61165885826115da565b8655506116c0565b601f19841661166e8661144a565b60005b8281101561169657848901518255600182019150602085019450602081019050611671565b868310156116b357848901516116af601f8916826115bc565b8355505b6001600288020188555050505b505050505050565b7f4e487b7100000000000000000000000000000000000000000000000000000000600052601160045260246000fd5b600061170282610d64565b915061170d83610d64565b9250828201905080821115611725576117246116c8565b5b92915050565b60006080820190506117406000830187610f9b565b61174d6020830186610ff2565b818103604083015261175f8185611047565b905061176e6060830184611080565b95945050505050565b7f206e6f7420617070726f76656400000000000000000000000000000000000000815250565b60006117a9828461135e565b91506117b482611777565b600d8201915081905092915050565b7f4661726d657220697320616c7265616479207265676973746572656400000000600082015250565b60006117f9601c8361100c565b9150611804826117c3565b602082019050919050565b60006020820190508181036000830152611828816117ec565b9050919050565b600061183a82610d64565b91507fffffffffffffffffffffffffffffffffffffffffffffffffffffffffffffffff820361186c5761186b6116c8565b5b600182019050919050565b600060e08201905061188c600083018a610f9b565b6118996020830189610ff2565b81810360408301526118ab8188611047565b90506118ba6060830187610ff2565b81810360808301526118cc8186611047565b905081810360a08301526118e08185611047565b905081810360c08301526118f48184611047565b905098975050505050505050565b600061012082019050611918600083018c610f9b565b611925602083018b610ff2565b8181036040830152611937818a611047565b90506119466060830189610ff2565b81810360808301526119588188611047565b905081810360a083015261196c8187611047565b905061197b60c0830186610ff2565b81810360e083015261198d8185611047565b905061199d610100830184611080565b9a995050505050505050505056fea26469706673582212206289fc9715b89cce65ab84c2a485a3acd7c8d4ffe057cbdb64b28862fd3ec92f64736f6c63430008130033",
  "immutableReferences": {},
  "source": "// SPDX-License-Identifier: MIT\r\npragma solidity ^0.8.18;\r\n\r\ncontract DirectBenefitTransfer {\r\n    struct Farmer {\r\n        uint id;\r\n        string name;\r\n        uint landArea;\r\n        string aadharNumber;\r\n        string bankAccount;\r\n        uint subsidyAmount;\r\n        string schemeName;\r\n        bool isRegistered;\r\n    }\r\n\r\n    mapping(address => Farmer) public farmers;\r\n    uint public farmerCount;\r\n    address public government;\r\n    uint public totalSubsidyAmount;\r\n\r\n    constructor() {\r\n        government = msg.sender;\r\n        farmerCount = 0;\r\n    }\r\n\r\n    modifier onlyGovernment() {\r\n        require(\r\n            msg.sender == government,\r\n            \"Only government can access this function\"\r\n        );\r\n        _;\r\n    }\r\n\r\n    event FarmerRegistered(\r\n        address _farmer,\r\n        uint id,\r\n        string _name,\r\n        uint _landArea,\r\n        string _aadharNumber,\r\n        string _schemeName,\r\n        string _bankAccount\r\n    );\r\n    event SchemeApproved(\r\n        address _farmer,\r\n        uint _subsidyAmount,\r\n        string _schemeName,\r\n        bool _isSchemeApproved\r\n    );\r\n    event GetDetails(\r\n        address _farmer,\r\n        uint _id,\r\n        string _name,\r\n        uint _landArea,\r\n        string _aadharNumber,\r\n        string _bankAccount,\r\n        uint _subsidyAmount,\r\n        string _schemeName,\r\n        bool _isRegistered\r\n    );\r\n\r\n    function updateSubsidyAmount(\r\n        address _farmer,\r\n        uint _subsidyAmount,\r\n        string memory _schemeName,\r\n        bool _isSchemeApproved\r\n    ) public onlyGovernment {\r\n        require(farmers[_farmer].isRegistered, \"Farmer is not registered\");\r\n        farmers[_farmer].subsidyAmount = _subsidyAmount;\r\n        if (_isSchemeApproved) {\r\n            farmers[_farmer].schemeName = string.concat(\r\n                \"PM-KISAN \",\r\n                _schemeName,\r\n                \" is aprroved\"\r\n            );\r\n            totalSubsidyAmount += _subsidyAmount;\r\n            emit SchemeApproved(\r\n                msg.sender,\r\n                _subsidyAmount,\r\n                _schemeName,\r\n                _isSchemeApproved\r\n            );\r\n        } else {\r\n            farmers[_farmer].schemeName = string.concat(\r\n                _schemeName,\r\n                \" not approved\"\r\n            );\r\n        }\r\n    }\r\n\r\n    function registerFarmer(\r\n        string memory _name,\r\n        uint _landArea,\r\n        string memory _aadharNumber,\r\n        string memory _bankAccount,\r\n        string memory _schemeName\r\n    ) public {\r\n        require(\r\n            !farmers[msg.sender].isRegistered,\r\n            \"Farmer is already registered\"\r\n        );\r\n        farmerCount++;\r\n        farmers[msg.sender] = Farmer(\r\n            farmerCount,\r\n            _name,\r\n            _landArea,\r\n            _aadharNumber,\r\n            _bankAccount,\r\n            0,\r\n            _schemeName,\r\n            true\r\n        );\r\n        emit FarmerRegistered(\r\n            msg.sender,\r\n            farmerCount,\r\n            _name,\r\n            _landArea,\r\n            _aadharNumber,\r\n            _schemeName,\r\n            _bankAccount\r\n        );\r\n    }\r\n\r\n    function getFarmerDetails(\r\n        address _farmer\r\n    )\r\n        public\r\n        returns (\r\n            uint,\r\n            string memory,\r\n            uint,\r\n            string memory,\r\n            string memory,\r\n            uint,\r\n            string memory,\r\n            bool\r\n        )\r\n    {\r\n        require(farmers[_farmer].isRegistered, \"Farmer is not registered\");\r\n        Farmer memory farmer = farmers[_farmer];\r\n        emit GetDetails(\r\n            msg.sender,\r\n            farmer.id,\r\n            farmer.name,\r\n            farmer.landArea,\r\n            farmer.aadharNumber,\r\n            farmer.bankAccount,\r\n            farmer.subsidyAmount,\r\n            farmer.schemeName,\r\n            farmer.isRegistered\r\n        );\r\n        return (\r\n            farmer.id,\r\n            farmer.name,\r\n            farmer.landArea,\r\n            farmer.aadharNumber,\r\n            farmer.bankAccount,\r\n            farmer.subsidyAmount,\r\n            farmer.schemeName,\r\n            farmer.isRegistered\r\n        );\r\n    }\r\n}\r\n",
  "sourcePath": "C:\\xampp\\htdocs\\dbts4\\contracts\\DirectBenefitTransfer.sol",
  "compiler": {
    "name": "solc",
    "version": "0.8.19+commit.7dd6d404.Emscripten.clang"
  },
  "schemaVersion": "3.4.13",
  "updatedAt": "2023-04-04T22:43:59.293Z",
  "networkType": "ethereum",
  "devdoc": {
    "kind": "dev",
    "methods": {},
    "version": 1
  },
  "userdoc": {
    "kind": "user",
    "methods": {},
    "version": 1
  }
}